{
  "_format": "hh-sol-artifact-1",
  "contractName": "NFTMarketplace",
  "sourceName": "contracts/NFTMarketplace.sol",
  "abi": [
    {
      "inputs": [],
      "stateMutability": "nonpayable",
      "type": "constructor"
    },
    {
      "anonymous": false,
      "inputs": [
        {
          "indexed": true,
          "internalType": "address",
          "name": "owner",
          "type": "address"
        },
        {
          "indexed": true,
          "internalType": "address",
          "name": "approved",
          "type": "address"
        },
        {
          "indexed": true,
          "internalType": "uint256",
          "name": "tokenId",
          "type": "uint256"
        }
      ],
      "name": "Approval",
      "type": "event"
    },
    {
      "anonymous": false,
      "inputs": [
        {
          "indexed": true,
          "internalType": "address",
          "name": "owner",
          "type": "address"
        },
        {
          "indexed": true,
          "internalType": "address",
          "name": "operator",
          "type": "address"
        },
        {
          "indexed": false,
          "internalType": "bool",
          "name": "approved",
          "type": "bool"
        }
      ],
      "name": "ApprovalForAll",
      "type": "event"
    },
    {
      "anonymous": false,
      "inputs": [
        {
          "indexed": false,
          "internalType": "uint256",
          "name": "_fromTokenId",
          "type": "uint256"
        },
        {
          "indexed": false,
          "internalType": "uint256",
          "name": "_toTokenId",
          "type": "uint256"
        }
      ],
      "name": "BatchMetadataUpdate",
      "type": "event"
    },
    {
      "anonymous": false,
      "inputs": [
        {
          "indexed": false,
          "internalType": "uint256",
          "name": "_tokenId",
          "type": "uint256"
        }
      ],
      "name": "MetadataUpdate",
      "type": "event"
    },
    {
      "anonymous": false,
      "inputs": [
        {
          "indexed": true,
          "internalType": "address",
          "name": "from",
          "type": "address"
        },
        {
          "indexed": true,
          "internalType": "address",
          "name": "to",
          "type": "address"
        },
        {
          "indexed": true,
          "internalType": "uint256",
          "name": "tokenId",
          "type": "uint256"
        }
      ],
      "name": "Transfer",
      "type": "event"
    },
    {
      "anonymous": false,
      "inputs": [
        {
          "indexed": true,
          "internalType": "uint256",
          "name": "tokenId",
          "type": "uint256"
        },
        {
          "indexed": false,
          "internalType": "address",
          "name": "seller",
          "type": "address"
        },
        {
          "indexed": false,
          "internalType": "address",
          "name": "owner",
          "type": "address"
        },
        {
          "indexed": false,
          "internalType": "uint256",
          "name": "price",
          "type": "uint256"
        },
        {
          "indexed": false,
          "internalType": "bool",
          "name": "sold",
          "type": "bool"
        }
      ],
      "name": "idMarketItemCreated",
      "type": "event"
    },
    {
      "inputs": [
        {
          "internalType": "address",
          "name": "to",
          "type": "address"
        },
        {
          "internalType": "uint256",
          "name": "tokenId",
          "type": "uint256"
        }
      ],
      "name": "approve",
      "outputs": [],
      "stateMutability": "nonpayable",
      "type": "function"
    },
    {
      "inputs": [
        {
          "internalType": "address",
          "name": "owner",
          "type": "address"
        }
      ],
      "name": "balanceOf",
      "outputs": [
        {
          "internalType": "uint256",
          "name": "",
          "type": "uint256"
        }
      ],
      "stateMutability": "view",
      "type": "function"
    },
    {
      "inputs": [
        {
          "internalType": "uint256",
          "name": "tokenId",
          "type": "uint256"
        }
      ],
      "name": "createMarketSale",
      "outputs": [],
      "stateMutability": "payable",
      "type": "function"
    },
    {
      "inputs": [
        {
          "internalType": "string",
          "name": "tokenURI",
          "type": "string"
        },
        {
          "internalType": "uint256",
          "name": "price",
          "type": "uint256"
        }
      ],
      "name": "createToken",
      "outputs": [
        {
          "internalType": "uint256",
          "name": "",
          "type": "uint256"
        }
      ],
      "stateMutability": "payable",
      "type": "function"
    },
    {
      "inputs": [],
      "name": "fetchItemsListed",
      "outputs": [
        {
          "components": [
            {
              "internalType": "uint256",
              "name": "tokenId",
              "type": "uint256"
            },
            {
              "internalType": "address payable",
              "name": "seller",
              "type": "address"
            },
            {
              "internalType": "address payable",
              "name": "owner",
              "type": "address"
            },
            {
              "internalType": "uint256",
              "name": "price",
              "type": "uint256"
            },
            {
              "internalType": "bool",
              "name": "sold",
              "type": "bool"
            }
          ],
          "internalType": "struct NFTMarketplace.MarketItem[]",
          "name": "",
          "type": "tuple[]"
        }
      ],
      "stateMutability": "view",
      "type": "function"
    },
    {
      "inputs": [],
      "name": "fetchMarketItems",
      "outputs": [
        {
          "components": [
            {
              "internalType": "uint256",
              "name": "tokenId",
              "type": "uint256"
            },
            {
              "internalType": "address payable",
              "name": "seller",
              "type": "address"
            },
            {
              "internalType": "address payable",
              "name": "owner",
              "type": "address"
            },
            {
              "internalType": "uint256",
              "name": "price",
              "type": "uint256"
            },
            {
              "internalType": "bool",
              "name": "sold",
              "type": "bool"
            }
          ],
          "internalType": "struct NFTMarketplace.MarketItem[]",
          "name": "",
          "type": "tuple[]"
        }
      ],
      "stateMutability": "view",
      "type": "function"
    },
    {
      "inputs": [],
      "name": "fetchMyNFTs",
      "outputs": [
        {
          "components": [
            {
              "internalType": "uint256",
              "name": "tokenId",
              "type": "uint256"
            },
            {
              "internalType": "address payable",
              "name": "seller",
              "type": "address"
            },
            {
              "internalType": "address payable",
              "name": "owner",
              "type": "address"
            },
            {
              "internalType": "uint256",
              "name": "price",
              "type": "uint256"
            },
            {
              "internalType": "bool",
              "name": "sold",
              "type": "bool"
            }
          ],
          "internalType": "struct NFTMarketplace.MarketItem[]",
          "name": "",
          "type": "tuple[]"
        }
      ],
      "stateMutability": "view",
      "type": "function"
    },
    {
      "inputs": [
        {
          "internalType": "uint256",
          "name": "tokenId",
          "type": "uint256"
        }
      ],
      "name": "getApproved",
      "outputs": [
        {
          "internalType": "address",
          "name": "",
          "type": "address"
        }
      ],
      "stateMutability": "view",
      "type": "function"
    },
    {
      "inputs": [],
      "name": "getListingPrice",
      "outputs": [
        {
          "internalType": "uint256",
          "name": "",
          "type": "uint256"
        }
      ],
      "stateMutability": "view",
      "type": "function"
    },
    {
      "inputs": [
        {
          "internalType": "address",
          "name": "owner",
          "type": "address"
        },
        {
          "internalType": "address",
          "name": "operator",
          "type": "address"
        }
      ],
      "name": "isApprovedForAll",
      "outputs": [
        {
          "internalType": "bool",
          "name": "",
          "type": "bool"
        }
      ],
      "stateMutability": "view",
      "type": "function"
    },
    {
      "inputs": [],
      "name": "name",
      "outputs": [
        {
          "internalType": "string",
          "name": "",
          "type": "string"
        }
      ],
      "stateMutability": "view",
      "type": "function"
    },
    {
      "inputs": [
        {
          "internalType": "uint256",
          "name": "tokenId",
          "type": "uint256"
        }
      ],
      "name": "ownerOf",
      "outputs": [
        {
          "internalType": "address",
          "name": "",
          "type": "address"
        }
      ],
      "stateMutability": "view",
      "type": "function"
    },
    {
      "inputs": [
        {
          "internalType": "uint256",
          "name": "tokenId",
          "type": "uint256"
        },
        {
          "internalType": "uint256",
          "name": "price",
          "type": "uint256"
        }
      ],
      "name": "reSellToken",
      "outputs": [],
      "stateMutability": "payable",
      "type": "function"
    },
    {
      "inputs": [
        {
          "internalType": "address",
          "name": "from",
          "type": "address"
        },
        {
          "internalType": "address",
          "name": "to",
          "type": "address"
        },
        {
          "internalType": "uint256",
          "name": "tokenId",
          "type": "uint256"
        }
      ],
      "name": "safeTransferFrom",
      "outputs": [],
      "stateMutability": "nonpayable",
      "type": "function"
    },
    {
      "inputs": [
        {
          "internalType": "address",
          "name": "from",
          "type": "address"
        },
        {
          "internalType": "address",
          "name": "to",
          "type": "address"
        },
        {
          "internalType": "uint256",
          "name": "tokenId",
          "type": "uint256"
        },
        {
          "internalType": "bytes",
          "name": "data",
          "type": "bytes"
        }
      ],
      "name": "safeTransferFrom",
      "outputs": [],
      "stateMutability": "nonpayable",
      "type": "function"
    },
    {
      "inputs": [
        {
          "internalType": "address",
          "name": "operator",
          "type": "address"
        },
        {
          "internalType": "bool",
          "name": "approved",
          "type": "bool"
        }
      ],
      "name": "setApprovalForAll",
      "outputs": [],
      "stateMutability": "nonpayable",
      "type": "function"
    },
    {
      "inputs": [
        {
          "internalType": "bytes4",
          "name": "interfaceId",
          "type": "bytes4"
        }
      ],
      "name": "supportsInterface",
      "outputs": [
        {
          "internalType": "bool",
          "name": "",
          "type": "bool"
        }
      ],
      "stateMutability": "view",
      "type": "function"
    },
    {
      "inputs": [],
      "name": "symbol",
      "outputs": [
        {
          "internalType": "string",
          "name": "",
          "type": "string"
        }
      ],
      "stateMutability": "view",
      "type": "function"
    },
    {
      "inputs": [
        {
          "internalType": "uint256",
          "name": "tokenId",
          "type": "uint256"
        }
      ],
      "name": "tokenURI",
      "outputs": [
        {
          "internalType": "string",
          "name": "",
          "type": "string"
        }
      ],
      "stateMutability": "view",
      "type": "function"
    },
    {
      "inputs": [
        {
          "internalType": "address",
          "name": "from",
          "type": "address"
        },
        {
          "internalType": "address",
          "name": "to",
          "type": "address"
        },
        {
          "internalType": "uint256",
          "name": "tokenId",
          "type": "uint256"
        }
      ],
      "name": "transferFrom",
      "outputs": [],
      "stateMutability": "nonpayable",
      "type": "function"
    },
    {
      "inputs": [
        {
          "internalType": "uint256",
          "name": "_listingPrice",
          "type": "uint256"
        }
      ],
      "name": "updateListingPrice",
      "outputs": [],
      "stateMutability": "payable",
      "type": "function"
    }
  ],
  "bytecode": "0x60806040526608e1bc9bf040006009553480156200001c57600080fd5b506040518060400160405280601381526020017f4e4654204d657461766572736520546f6b656e000000000000000000000000008152506040518060400160405280600581526020017f4d594e465400000000000000000000000000000000000000000000000000000081525081600090816200009a919062000355565b508060019081620000ac919062000355565b5050503373ffffffffffffffffffffffffffffffffffffffff16600a60009054906101000a905050506200043c565b600081519050919050565b7f4e487b7100000000000000000000000000000000000000000000000000000000600052604160045260246000fd5b7f4e487b7100000000000000000000000000000000000000000000000000000000600052602260045260246000fd5b600060028204905060018216806200015d57607f821691505b60208210810362000173576200017262000115565b5b50919050565b60008190508160005260206000209050919050565b60006020601f8301049050919050565b600082821b905092915050565b600060088302620001dd7fffffffffffffffffffffffffffffffffffffffffffffffffffffffffffffffff826200019e565b620001e986836200019e565b95508019841693508086168417925050509392505050565b6000819050919050565b6000819050919050565b600062000236620002306200022a8462000201565b6200020b565b62000201565b9050919050565b6000819050919050565b620002528362000215565b6200026a62000261826200023d565b848454620001ab565b825550505050565b600090565b6200028162000272565b6200028e81848462000247565b505050565b5b81811015620002b657620002aa60008262000277565b60018101905062000294565b5050565b601f8211156200030557620002cf8162000179565b620002da846200018e565b81016020851015620002ea578190505b62000302620002f9856200018e565b83018262000293565b50505b505050565b600082821c905092915050565b60006200032a600019846008026200030a565b1980831691505092915050565b600062000345838362000317565b9150826002028217905092915050565b6200036082620000db565b67ffffffffffffffff8111156200037c576200037b620000e6565b5b62000388825462000144565b62000395828285620002ba565b600060209050601f831160018114620003cd5760008415620003b8578287015190505b620003c4858262000337565b86555062000434565b601f198416620003dd8662000179565b60005b828110156200040757848901518255600182019150602085019450602081019050620003e0565b8683101562000427578489015162000423601f89168262000317565b8355505b6001600288020188555050505b505050505050565b614356806200044c6000396000f3fe60806040526004361061012a5760003560e01c80636352211e116100ab578063a22cb4651161006f578063a22cb465146103ec578063ae677aa314610415578063b88d4fde14610431578063be9af5361461045a578063c87b56dd14610476578063e985e9c5146104b35761012a565b80636352211e146102fb57806370a082311461033857806372b3b6201461037557806385535b25146103a557806395d89b41146103c15761012a565b806312e85585116100f257806312e8558514610228578063202e37401461025357806323b872dd1461027e57806342842e0e146102a757806345f8fa80146102d05761012a565b806301ffc9a71461012f57806306fdde031461016c578063081812fc14610197578063095ea7b3146101d45780630f08efe0146101fd575b600080fd5b34801561013b57600080fd5b5061015660048036038101906101519190612b88565b6104f0565b6040516101639190612bd0565b60405180910390f35b34801561017857600080fd5b50610181610551565b60405161018e9190612c7b565b60405180910390f35b3480156101a357600080fd5b506101be60048036038101906101b99190612cd3565b6105e3565b6040516101cb9190612d41565b60405180910390f35b3480156101e057600080fd5b506101fb60048036038101906101f69190612d88565b610629565b005b34801561020957600080fd5b50610212610740565b60405161021f9190612f1e565b60405180910390f35b34801561023457600080fd5b5061023d6109a8565b60405161024a9190612f4f565b60405180910390f35b34801561025f57600080fd5b506102686109b2565b6040516102759190612f1e565b60405180910390f35b34801561028a57600080fd5b506102a560048036038101906102a09190612f6a565b610c9e565b005b3480156102b357600080fd5b506102ce60048036038101906102c99190612f6a565b610cfe565b005b3480156102dc57600080fd5b506102e5610d1e565b6040516102f29190612f1e565b60405180910390f35b34801561030757600080fd5b50610322600480360381019061031d9190612cd3565b61100a565b60405161032f9190612d41565b60405180910390f35b34801561034457600080fd5b5061035f600480360381019061035a9190612fbd565b611090565b60405161036c9190612f4f565b60405180910390f35b61038f600480360381019061038a919061311f565b611147565b60405161039c9190612f4f565b60405180910390f35b6103bf60048036038101906103ba919061317b565b611189565b005b3480156103cd57600080fd5b506103d661137e565b6040516103e39190612c7b565b60405180910390f35b3480156103f857600080fd5b50610413600480360381019061040e91906131e7565b611410565b005b61042f600480360381019061042a9190612cd3565b611426565b005b34801561043d57600080fd5b50610458600480360381019061045391906132c8565b6114b9565b005b610474600480360381019061046f9190612cd3565b61151b565b005b34801561048257600080fd5b5061049d60048036038101906104989190612cd3565b611753565b6040516104aa9190612c7b565b60405180910390f35b3480156104bf57600080fd5b506104da60048036038101906104d5919061334b565b611865565b6040516104e79190612bd0565b60405180910390f35b6000634906490660e01b7bffffffffffffffffffffffffffffffffffffffffffffffffffffffff1916827bffffffffffffffffffffffffffffffffffffffffffffffffffffffff1916148061054a5750610549826118f9565b5b9050919050565b606060008054610560906133ba565b80601f016020809104026020016040519081016040528092919081815260200182805461058c906133ba565b80156105d95780601f106105ae576101008083540402835291602001916105d9565b820191906000526020600020905b8154815290600101906020018083116105bc57829003601f168201915b5050505050905090565b60006105ee826119db565b6004600083815260200190815260200160002060009054906101000a900473ffffffffffffffffffffffffffffffffffffffff169050919050565b60006106348261100a565b90508073ffffffffffffffffffffffffffffffffffffffff168373ffffffffffffffffffffffffffffffffffffffff16036106a4576040517f08c379a000000000000000000000000000000000000000000000000000000000815260040161069b9061345d565b60405180910390fd5b8073ffffffffffffffffffffffffffffffffffffffff166106c3611a26565b73ffffffffffffffffffffffffffffffffffffffff1614806106f257506106f1816106ec611a26565b611865565b5b610731576040517f08c379a0000000000000000000000000000000000000000000000000000000008152600401610728906134ef565b60405180910390fd5b61073b8383611a2e565b505050565b6060600061074e6007611ae7565b9050600061075c6008611ae7565b6107666007611ae7565b610770919061353e565b90506000808267ffffffffffffffff81111561078f5761078e612ff4565b5b6040519080825280602002602001820160405280156107c857816020015b6107b5612abf565b8152602001906001900390816107ad5790505b50905060005b8481101561099d573073ffffffffffffffffffffffffffffffffffffffff16600b60006001846107fe9190613572565b815260200190815260200160002060020160009054906101000a900473ffffffffffffffffffffffffffffffffffffffff1673ffffffffffffffffffffffffffffffffffffffff160361098a57600060018261085a9190613572565b90506000600b60008381526020019081526020016000209050806040518060a0016040529081600082015481526020016001820160009054906101000a900473ffffffffffffffffffffffffffffffffffffffff1673ffffffffffffffffffffffffffffffffffffffff1673ffffffffffffffffffffffffffffffffffffffff1681526020016002820160009054906101000a900473ffffffffffffffffffffffffffffffffffffffff1673ffffffffffffffffffffffffffffffffffffffff1673ffffffffffffffffffffffffffffffffffffffff168152602001600382015481526020016004820160009054906101000a900460ff16151515158152505084868151811061096d5761096c6135a6565b5b60200260200101819052506001856109859190613572565b945050505b8080610995906135d5565b9150506107ce565b508094505050505090565b6000600954905090565b606060006109c06007611ae7565b905060008060005b83811015610a68573373ffffffffffffffffffffffffffffffffffffffff16600b60006001846109f89190613572565b815260200190815260200160002060020160009054906101000a900473ffffffffffffffffffffffffffffffffffffffff1673ffffffffffffffffffffffffffffffffffffffff1603610a5557600183610a529190613572565b92505b8080610a60906135d5565b9150506109c8565b5060008267ffffffffffffffff811115610a8557610a84612ff4565b5b604051908082528060200260200182016040528015610abe57816020015b610aab612abf565b815260200190600190039081610aa35790505b50905060005b84811015610c93573373ffffffffffffffffffffffffffffffffffffffff16600b6000600184610af49190613572565b815260200190815260200160002060020160009054906101000a900473ffffffffffffffffffffffffffffffffffffffff1673ffffffffffffffffffffffffffffffffffffffff1603610c80576000600182610b509190613572565b90506000600b60008381526020019081526020016000209050806040518060a0016040529081600082015481526020016001820160009054906101000a900473ffffffffffffffffffffffffffffffffffffffff1673ffffffffffffffffffffffffffffffffffffffff1673ffffffffffffffffffffffffffffffffffffffff1681526020016002820160009054906101000a900473ffffffffffffffffffffffffffffffffffffffff1673ffffffffffffffffffffffffffffffffffffffff1673ffffffffffffffffffffffffffffffffffffffff168152602001600382015481526020016004820160009054906101000a900460ff161515151581525050848681518110610c6357610c626135a6565b5b6020026020010181905250600185610c7b9190613572565b945050505b8080610c8b906135d5565b915050610ac4565b508094505050505090565b610caf610ca9611a26565b82611af5565b610cee576040517f08c379a0000000000000000000000000000000000000000000000000000000008152600401610ce59061368f565b60405180910390fd5b610cf9838383611b8a565b505050565b610d19838383604051806020016040528060008152506114b9565b505050565b60606000610d2c6007611ae7565b905060008060005b83811015610dd4573373ffffffffffffffffffffffffffffffffffffffff16600b6000600184610d649190613572565b815260200190815260200160002060010160009054906101000a900473ffffffffffffffffffffffffffffffffffffffff1673ffffffffffffffffffffffffffffffffffffffff1603610dc157600183610dbe9190613572565b92505b8080610dcc906135d5565b915050610d34565b5060008267ffffffffffffffff811115610df157610df0612ff4565b5b604051908082528060200260200182016040528015610e2a57816020015b610e17612abf565b815260200190600190039081610e0f5790505b50905060005b84811015610fff573373ffffffffffffffffffffffffffffffffffffffff16600b6000600184610e609190613572565b815260200190815260200160002060010160009054906101000a900473ffffffffffffffffffffffffffffffffffffffff1673ffffffffffffffffffffffffffffffffffffffff1603610fec576000600182610ebc9190613572565b90506000600b60008381526020019081526020016000209050806040518060a0016040529081600082015481526020016001820160009054906101000a900473ffffffffffffffffffffffffffffffffffffffff1673ffffffffffffffffffffffffffffffffffffffff1673ffffffffffffffffffffffffffffffffffffffff1681526020016002820160009054906101000a900473ffffffffffffffffffffffffffffffffffffffff1673ffffffffffffffffffffffffffffffffffffffff1673ffffffffffffffffffffffffffffffffffffffff168152602001600382015481526020016004820160009054906101000a900460ff161515151581525050848681518110610fcf57610fce6135a6565b5b6020026020010181905250600185610fe79190613572565b945050505b8080610ff7906135d5565b915050610e30565b508094505050505090565b60008061101683611e83565b9050600073ffffffffffffffffffffffffffffffffffffffff168173ffffffffffffffffffffffffffffffffffffffff1603611087576040517f08c379a000000000000000000000000000000000000000000000000000000000815260040161107e906136fb565b60405180910390fd5b80915050919050565b60008073ffffffffffffffffffffffffffffffffffffffff168273ffffffffffffffffffffffffffffffffffffffff1603611100576040517f08c379a00000000000000000000000000000000000000000000000000000000081526004016110f79061378d565b60405180910390fd5b600360008373ffffffffffffffffffffffffffffffffffffffff1673ffffffffffffffffffffffffffffffffffffffff168152602001908152602001600020549050919050565b60006111536007611ec0565b600061115f6007611ae7565b905061116b3382611ed6565b61117581856120f3565b61117f8184612197565b8091505092915050565b3373ffffffffffffffffffffffffffffffffffffffff16600b600084815260200190815260200160002060020160009054906101000a900473ffffffffffffffffffffffffffffffffffffffff1673ffffffffffffffffffffffffffffffffffffffff161461122d576040517f08c379a00000000000000000000000000000000000000000000000000000000081526004016112249061381f565b60405180910390fd5b6009543414611271576040517f08c379a0000000000000000000000000000000000000000000000000000000008152600401611268906138b1565b60405180910390fd5b6000600b600084815260200190815260200160002060040160006101000a81548160ff02191690831515021790555080600b60008481526020019081526020016000206003018190555033600b600084815260200190815260200160002060010160006101000a81548173ffffffffffffffffffffffffffffffffffffffff021916908373ffffffffffffffffffffffffffffffffffffffff16021790555030600b600084815260200190815260200160002060020160006101000a81548173ffffffffffffffffffffffffffffffffffffffff021916908373ffffffffffffffffffffffffffffffffffffffff16021790555061136f600861239a565b61137a333084611b8a565b5050565b60606001805461138d906133ba565b80601f01602080910402602001604051908101604052809291908181526020018280546113b9906133ba565b80156114065780601f106113db57610100808354040283529160200191611406565b820191906000526020600020905b8154815290600101906020018083116113e957829003601f168201915b5050505050905090565b61142261141b611a26565b83836123f6565b5050565b600a60009054906101000a900473ffffffffffffffffffffffffffffffffffffffff1673ffffffffffffffffffffffffffffffffffffffff163373ffffffffffffffffffffffffffffffffffffffff16146114b6576040517f08c379a00000000000000000000000000000000000000000000000000000000081526004016114ad90613943565b60405180910390fd5b50565b6114ca6114c4611a26565b83611af5565b611509576040517f08c379a00000000000000000000000000000000000000000000000000000000081526004016115009061368f565b60405180910390fd5b61151584848484612562565b50505050565b6000600b6000838152602001908152602001600020600301549050803414611578576040517f08c379a000000000000000000000000000000000000000000000000000000000815260040161156f906139d5565b60405180910390fd5b33600b600084815260200190815260200160002060020160006101000a81548173ffffffffffffffffffffffffffffffffffffffff021916908373ffffffffffffffffffffffffffffffffffffffff1602179055506001600b600084815260200190815260200160002060040160006101000a81548160ff0219169083151502179055506116066008611ec0565b611611303384611b8a565b600a60009054906101000a900473ffffffffffffffffffffffffffffffffffffffff1673ffffffffffffffffffffffffffffffffffffffff166108fc6009549081150290604051600060405180830381858888f1935050505015801561167b573d6000803e3d6000fd5b50600b600083815260200190815260200160002060010160009054906101000a900473ffffffffffffffffffffffffffffffffffffffff1673ffffffffffffffffffffffffffffffffffffffff166108fc349081150290604051600060405180830381858888f193505050501580156116f8573d6000803e3d6000fd5b506000600b600084815260200190815260200160002060010160006101000a81548173ffffffffffffffffffffffffffffffffffffffff021916908373ffffffffffffffffffffffffffffffffffffffff1602179055505050565b606061175e826119db565b600060066000848152602001908152602001600020805461177e906133ba565b80601f01602080910402602001604051908101604052809291908181526020018280546117aa906133ba565b80156117f75780601f106117cc576101008083540402835291602001916117f7565b820191906000526020600020905b8154815290600101906020018083116117da57829003601f168201915b5050505050905060006118086125be565b9050600081510361181d578192505050611860565b60008251111561185257808260405160200161183a929190613a31565b60405160208183030381529060405292505050611860565b61185b846125d5565b925050505b919050565b6000600560008473ffffffffffffffffffffffffffffffffffffffff1673ffffffffffffffffffffffffffffffffffffffff16815260200190815260200160002060008373ffffffffffffffffffffffffffffffffffffffff1673ffffffffffffffffffffffffffffffffffffffff16815260200190815260200160002060009054906101000a900460ff16905092915050565b60007f80ac58cd000000000000000000000000000000000000000000000000000000007bffffffffffffffffffffffffffffffffffffffffffffffffffffffff1916827bffffffffffffffffffffffffffffffffffffffffffffffffffffffff191614806119c457507f5b5e139f000000000000000000000000000000000000000000000000000000007bffffffffffffffffffffffffffffffffffffffffffffffffffffffff1916827bffffffffffffffffffffffffffffffffffffffffffffffffffffffff1916145b806119d457506119d38261263d565b5b9050919050565b6119e4816126a7565b611a23576040517f08c379a0000000000000000000000000000000000000000000000000000000008152600401611a1a906136fb565b60405180910390fd5b50565b600033905090565b816004600083815260200190815260200160002060006101000a81548173ffffffffffffffffffffffffffffffffffffffff021916908373ffffffffffffffffffffffffffffffffffffffff160217905550808273ffffffffffffffffffffffffffffffffffffffff16611aa18361100a565b73ffffffffffffffffffffffffffffffffffffffff167f8c5be1e5ebec7d5bd14f71427d1e84f3dd0314c0f7b2291e5b200ac8c7c3b92560405160405180910390a45050565b600081600001549050919050565b600080611b018361100a565b90508073ffffffffffffffffffffffffffffffffffffffff168473ffffffffffffffffffffffffffffffffffffffff161480611b435750611b428185611865565b5b80611b8157508373ffffffffffffffffffffffffffffffffffffffff16611b69846105e3565b73ffffffffffffffffffffffffffffffffffffffff16145b91505092915050565b8273ffffffffffffffffffffffffffffffffffffffff16611baa8261100a565b73ffffffffffffffffffffffffffffffffffffffff1614611c00576040517f08c379a0000000000000000000000000000000000000000000000000000000008152600401611bf790613ac7565b60405180910390fd5b600073ffffffffffffffffffffffffffffffffffffffff168273ffffffffffffffffffffffffffffffffffffffff1603611c6f576040517f08c379a0000000000000000000000000000000000000000000000000000000008152600401611c6690613b59565b60405180910390fd5b611c7c83838360016126e8565b8273ffffffffffffffffffffffffffffffffffffffff16611c9c8261100a565b73ffffffffffffffffffffffffffffffffffffffff1614611cf2576040517f08c379a0000000000000000000000000000000000000000000000000000000008152600401611ce990613ac7565b60405180910390fd5b6004600082815260200190815260200160002060006101000a81549073ffffffffffffffffffffffffffffffffffffffff02191690556001600360008573ffffffffffffffffffffffffffffffffffffffff1673ffffffffffffffffffffffffffffffffffffffff168152602001908152602001600020600082825403925050819055506001600360008473ffffffffffffffffffffffffffffffffffffffff1673ffffffffffffffffffffffffffffffffffffffff16815260200190815260200160002060008282540192505081905550816002600083815260200190815260200160002060006101000a81548173ffffffffffffffffffffffffffffffffffffffff021916908373ffffffffffffffffffffffffffffffffffffffff160217905550808273ffffffffffffffffffffffffffffffffffffffff168473ffffffffffffffffffffffffffffffffffffffff167fddf252ad1be2c89b69c2b068fc378daa952ba7f163c4a11628f55a4df523b3ef60405160405180910390a4611e7e83838360016126ee565b505050565b60006002600083815260200190815260200160002060009054906101000a900473ffffffffffffffffffffffffffffffffffffffff169050919050565b6001816000016000828254019250508190555050565b600073ffffffffffffffffffffffffffffffffffffffff168273ffffffffffffffffffffffffffffffffffffffff1603611f45576040517f08c379a0000000000000000000000000000000000000000000000000000000008152600401611f3c90613bc5565b60405180910390fd5b611f4e816126a7565b15611f8e576040517f08c379a0000000000000000000000000000000000000000000000000000000008152600401611f8590613c31565b60405180910390fd5b611f9c6000838360016126e8565b611fa5816126a7565b15611fe5576040517f08c379a0000000000000000000000000000000000000000000000000000000008152600401611fdc90613c31565b60405180910390fd5b6001600360008473ffffffffffffffffffffffffffffffffffffffff1673ffffffffffffffffffffffffffffffffffffffff16815260200190815260200160002060008282540192505081905550816002600083815260200190815260200160002060006101000a81548173ffffffffffffffffffffffffffffffffffffffff021916908373ffffffffffffffffffffffffffffffffffffffff160217905550808273ffffffffffffffffffffffffffffffffffffffff16600073ffffffffffffffffffffffffffffffffffffffff167fddf252ad1be2c89b69c2b068fc378daa952ba7f163c4a11628f55a4df523b3ef60405160405180910390a46120ef6000838360016126ee565b5050565b6120fc826126a7565b61213b576040517f08c379a000000000000000000000000000000000000000000000000000000000815260040161213290613cc3565b60405180910390fd5b8060066000848152602001908152602001600020908161215b9190613e8f565b507ff8e1a15aba9398e019f0b49df1a4fde98ee17ae345cb5f6b5e2c27f5033e8ce78260405161218b9190612f4f565b60405180910390a15050565b600081116121da576040517f08c379a00000000000000000000000000000000000000000000000000000000081526004016121d190613fad565b60405180910390fd5b600954341461221e576040517f08c379a00000000000000000000000000000000000000000000000000000000081526004016122159061403f565b60405180910390fd5b6040518060a001604052808381526020013373ffffffffffffffffffffffffffffffffffffffff1681526020013073ffffffffffffffffffffffffffffffffffffffff16815260200182815260200160001515815250600b60008481526020019081526020016000206000820151816000015560208201518160010160006101000a81548173ffffffffffffffffffffffffffffffffffffffff021916908373ffffffffffffffffffffffffffffffffffffffff16021790555060408201518160020160006101000a81548173ffffffffffffffffffffffffffffffffffffffff021916908373ffffffffffffffffffffffffffffffffffffffff1602179055506060820151816003015560808201518160040160006101000a81548160ff021916908315150217905550905050612357333084611b8a565b817fdebdb32cb5230ab727c9c361b16fdb2015df225c10e6a3e7f60ecd5dc5be4516333084600060405161238e949392919061405f565b60405180910390a25050565b600081600001549050600081116123e6576040517f08c379a00000000000000000000000000000000000000000000000000000000081526004016123dd906140f0565b60405180910390fd5b6001810382600001819055505050565b8173ffffffffffffffffffffffffffffffffffffffff168373ffffffffffffffffffffffffffffffffffffffff1603612464576040517f08c379a000000000000000000000000000000000000000000000000000000000815260040161245b9061415c565b60405180910390fd5b80600560008573ffffffffffffffffffffffffffffffffffffffff1673ffffffffffffffffffffffffffffffffffffffff16815260200190815260200160002060008473ffffffffffffffffffffffffffffffffffffffff1673ffffffffffffffffffffffffffffffffffffffff16815260200190815260200160002060006101000a81548160ff0219169083151502179055508173ffffffffffffffffffffffffffffffffffffffff168373ffffffffffffffffffffffffffffffffffffffff167f17307eab39ab6107e8899845ad3d59bd9653f200f220920489ca2b5937696c31836040516125559190612bd0565b60405180910390a3505050565b61256d848484611b8a565b612579848484846126f4565b6125b8576040517f08c379a00000000000000000000000000000000000000000000000000000000081526004016125af906141ee565b60405180910390fd5b50505050565b606060405180602001604052806000815250905090565b60606125e0826119db565b60006125ea6125be565b9050600081511161260a5760405180602001604052806000815250612635565b806126148461287b565b604051602001612625929190613a31565b6040516020818303038152906040525b915050919050565b60007f01ffc9a7000000000000000000000000000000000000000000000000000000007bffffffffffffffffffffffffffffffffffffffffffffffffffffffff1916827bffffffffffffffffffffffffffffffffffffffffffffffffffffffff1916149050919050565b60008073ffffffffffffffffffffffffffffffffffffffff166126c983611e83565b73ffffffffffffffffffffffffffffffffffffffff1614159050919050565b50505050565b50505050565b60006127158473ffffffffffffffffffffffffffffffffffffffff16612949565b1561286e578373ffffffffffffffffffffffffffffffffffffffff1663150b7a0261273e611a26565b8786866040518563ffffffff1660e01b81526004016127609493929190614263565b6020604051808303816000875af192505050801561279c57506040513d601f19601f8201168201806040525081019061279991906142c4565b60015b61281e573d80600081146127cc576040519150601f19603f3d011682016040523d82523d6000602084013e6127d1565b606091505b506000815103612816576040517f08c379a000000000000000000000000000000000000000000000000000000000815260040161280d906141ee565b60405180910390fd5b805181602001fd5b63150b7a0260e01b7bffffffffffffffffffffffffffffffffffffffffffffffffffffffff1916817bffffffffffffffffffffffffffffffffffffffffffffffffffffffff191614915050612873565b600190505b949350505050565b60606000600161288a8461296c565b01905060008167ffffffffffffffff8111156128a9576128a8612ff4565b5b6040519080825280601f01601f1916602001820160405280156128db5781602001600182028036833780820191505090505b509050600082602001820190505b60011561293e578080600190039150507f3031323334353637383961626364656600000000000000000000000000000000600a86061a8153600a8581612932576129316142f1565b5b049450600085036128e9575b819350505050919050565b6000808273ffffffffffffffffffffffffffffffffffffffff163b119050919050565b600080600090507a184f03e93ff9f4daa797ed6e38ed64bf6a1f01000000000000000083106129ca577a184f03e93ff9f4daa797ed6e38ed64bf6a1f01000000000000000083816129c0576129bf6142f1565b5b0492506040810190505b6d04ee2d6d415b85acef81000000008310612a07576d04ee2d6d415b85acef810000000083816129fd576129fc6142f1565b5b0492506020810190505b662386f26fc100008310612a3657662386f26fc100008381612a2c57612a2b6142f1565b5b0492506010810190505b6305f5e1008310612a5f576305f5e1008381612a5557612a546142f1565b5b0492506008810190505b6127108310612a84576127108381612a7a57612a796142f1565b5b0492506004810190505b60648310612aa75760648381612a9d57612a9c6142f1565b5b0492506002810190505b600a8310612ab6576001810190505b80915050919050565b6040518060a0016040528060008152602001600073ffffffffffffffffffffffffffffffffffffffff168152602001600073ffffffffffffffffffffffffffffffffffffffff168152602001600081526020016000151581525090565b6000604051905090565b600080fd5b600080fd5b60007fffffffff0000000000000000000000000000000000000000000000000000000082169050919050565b612b6581612b30565b8114612b7057600080fd5b50565b600081359050612b8281612b5c565b92915050565b600060208284031215612b9e57612b9d612b26565b5b6000612bac84828501612b73565b91505092915050565b60008115159050919050565b612bca81612bb5565b82525050565b6000602082019050612be56000830184612bc1565b92915050565b600081519050919050565b600082825260208201905092915050565b60005b83811015612c25578082015181840152602081019050612c0a565b60008484015250505050565b6000601f19601f8301169050919050565b6000612c4d82612beb565b612c578185612bf6565b9350612c67818560208601612c07565b612c7081612c31565b840191505092915050565b60006020820190508181036000830152612c958184612c42565b905092915050565b6000819050919050565b612cb081612c9d565b8114612cbb57600080fd5b50565b600081359050612ccd81612ca7565b92915050565b600060208284031215612ce957612ce8612b26565b5b6000612cf784828501612cbe565b91505092915050565b600073ffffffffffffffffffffffffffffffffffffffff82169050919050565b6000612d2b82612d00565b9050919050565b612d3b81612d20565b82525050565b6000602082019050612d566000830184612d32565b92915050565b612d6581612d20565b8114612d7057600080fd5b50565b600081359050612d8281612d5c565b92915050565b60008060408385031215612d9f57612d9e612b26565b5b6000612dad85828601612d73565b9250506020612dbe85828601612cbe565b9150509250929050565b600081519050919050565b600082825260208201905092915050565b6000819050602082019050919050565b612dfd81612c9d565b82525050565b6000612e0e82612d00565b9050919050565b612e1e81612e03565b82525050565b612e2d81612bb5565b82525050565b60a082016000820151612e496000850182612df4565b506020820151612e5c6020850182612e15565b506040820151612e6f6040850182612e15565b506060820151612e826060850182612df4565b506080820151612e956080850182612e24565b50505050565b6000612ea78383612e33565b60a08301905092915050565b6000602082019050919050565b6000612ecb82612dc8565b612ed58185612dd3565b9350612ee083612de4565b8060005b83811015612f11578151612ef88882612e9b565b9750612f0383612eb3565b925050600181019050612ee4565b5085935050505092915050565b60006020820190508181036000830152612f388184612ec0565b905092915050565b612f4981612c9d565b82525050565b6000602082019050612f646000830184612f40565b92915050565b600080600060608486031215612f8357612f82612b26565b5b6000612f9186828701612d73565b9350506020612fa286828701612d73565b9250506040612fb386828701612cbe565b9150509250925092565b600060208284031215612fd357612fd2612b26565b5b6000612fe184828501612d73565b91505092915050565b600080fd5b600080fd5b7f4e487b7100000000000000000000000000000000000000000000000000000000600052604160045260246000fd5b61302c82612c31565b810181811067ffffffffffffffff8211171561304b5761304a612ff4565b5b80604052505050565b600061305e612b1c565b905061306a8282613023565b919050565b600067ffffffffffffffff82111561308a57613089612ff4565b5b61309382612c31565b9050602081019050919050565b82818337600083830152505050565b60006130c26130bd8461306f565b613054565b9050828152602081018484840111156130de576130dd612fef565b5b6130e98482856130a0565b509392505050565b600082601f83011261310657613105612fea565b5b81356131168482602086016130af565b91505092915050565b6000806040838503121561313657613135612b26565b5b600083013567ffffffffffffffff81111561315457613153612b2b565b5b613160858286016130f1565b925050602061317185828601612cbe565b9150509250929050565b6000806040838503121561319257613191612b26565b5b60006131a085828601612cbe565b92505060206131b185828601612cbe565b9150509250929050565b6131c481612bb5565b81146131cf57600080fd5b50565b6000813590506131e1816131bb565b92915050565b600080604083850312156131fe576131fd612b26565b5b600061320c85828601612d73565b925050602061321d858286016131d2565b9150509250929050565b600067ffffffffffffffff82111561324257613241612ff4565b5b61324b82612c31565b9050602081019050919050565b600061326b61326684613227565b613054565b90508281526020810184848401111561328757613286612fef565b5b6132928482856130a0565b509392505050565b600082601f8301126132af576132ae612fea565b5b81356132bf848260208601613258565b91505092915050565b600080600080608085870312156132e2576132e1612b26565b5b60006132f087828801612d73565b945050602061330187828801612d73565b935050604061331287828801612cbe565b925050606085013567ffffffffffffffff81111561333357613332612b2b565b5b61333f8782880161329a565b91505092959194509250565b6000806040838503121561336257613361612b26565b5b600061337085828601612d73565b925050602061338185828601612d73565b9150509250929050565b7f4e487b7100000000000000000000000000000000000000000000000000000000600052602260045260246000fd5b600060028204905060018216806133d257607f821691505b6020821081036133e5576133e461338b565b5b50919050565b7f4552433732313a20617070726f76616c20746f2063757272656e74206f776e6560008201527f7200000000000000000000000000000000000000000000000000000000000000602082015250565b6000613447602183612bf6565b9150613452826133eb565b604082019050919050565b600060208201905081810360008301526134768161343a565b9050919050565b7f4552433732313a20617070726f76652063616c6c6572206973206e6f7420746f60008201527f6b656e206f776e6572206f7220617070726f76656420666f7220616c6c000000602082015250565b60006134d9603d83612bf6565b91506134e48261347d565b604082019050919050565b60006020820190508181036000830152613508816134cc565b9050919050565b7f4e487b7100000000000000000000000000000000000000000000000000000000600052601160045260246000fd5b600061354982612c9d565b915061355483612c9d565b925082820390508181111561356c5761356b61350f565b5b92915050565b600061357d82612c9d565b915061358883612c9d565b92508282019050808211156135a05761359f61350f565b5b92915050565b7f4e487b7100000000000000000000000000000000000000000000000000000000600052603260045260246000fd5b60006135e082612c9d565b91507fffffffffffffffffffffffffffffffffffffffffffffffffffffffffffffffff82036136125761361161350f565b5b600182019050919050565b7f4552433732313a2063616c6c6572206973206e6f7420746f6b656e206f776e6560008201527f72206f7220617070726f76656400000000000000000000000000000000000000602082015250565b6000613679602d83612bf6565b91506136848261361d565b604082019050919050565b600060208201905081810360008301526136a88161366c565b9050919050565b7f4552433732313a20696e76616c696420746f6b656e2049440000000000000000600082015250565b60006136e5601883612bf6565b91506136f0826136af565b602082019050919050565b60006020820190508181036000830152613714816136d8565b9050919050565b7f4552433732313a2061646472657373207a65726f206973206e6f74206120766160008201527f6c6964206f776e65720000000000000000000000000000000000000000000000602082015250565b6000613777602983612bf6565b91506137828261371b565b604082019050919050565b600060208201905081810360008301526137a68161376a565b9050919050565b7f4f6e6c79206974656d206f776e65722063616e20706572666f726d207468697360008201527f206f7065726174696f6e00000000000000000000000000000000000000000000602082015250565b6000613809602a83612bf6565b9150613814826137ad565b604082019050919050565b60006020820190508181036000830152613838816137fc565b9050919050565b7f5072696365206d75737420626520657175616c20746f206c697374696e67207060008201527f7269636500000000000000000000000000000000000000000000000000000000602082015250565b600061389b602483612bf6565b91506138a68261383f565b604082019050919050565b600060208201905081810360008301526138ca8161388e565b9050919050565b7f6f6e6c79206f776e65722063616e206368616e676520746865206c697374696e60008201527f6720707269636500000000000000000000000000000000000000000000000000602082015250565b600061392d602783612bf6565b9150613938826138d1565b604082019050919050565b6000602082019050818103600083015261395c81613920565b9050919050565b7f506c65617365207375626d6974207468652061736b69676e207072696365206960008201527f6e206f72646520746f20636f6d706c6574652074686520707572636861736500602082015250565b60006139bf603f83612bf6565b91506139ca82613963565b604082019050919050565b600060208201905081810360008301526139ee816139b2565b9050919050565b600081905092915050565b6000613a0b82612beb565b613a1581856139f5565b9350613a25818560208601612c07565b80840191505092915050565b6000613a3d8285613a00565b9150613a498284613a00565b91508190509392505050565b7f4552433732313a207472616e736665722066726f6d20696e636f72726563742060008201527f6f776e6572000000000000000000000000000000000000000000000000000000602082015250565b6000613ab1602583612bf6565b9150613abc82613a55565b604082019050919050565b60006020820190508181036000830152613ae081613aa4565b9050919050565b7f4552433732313a207472616e7366657220746f20746865207a65726f2061646460008201527f7265737300000000000000000000000000000000000000000000000000000000602082015250565b6000613b43602483612bf6565b9150613b4e82613ae7565b604082019050919050565b60006020820190508181036000830152613b7281613b36565b9050919050565b7f4552433732313a206d696e7420746f20746865207a65726f2061646472657373600082015250565b6000613baf602083612bf6565b9150613bba82613b79565b602082019050919050565b60006020820190508181036000830152613bde81613ba2565b9050919050565b7f4552433732313a20746f6b656e20616c7265616479206d696e74656400000000600082015250565b6000613c1b601c83612bf6565b9150613c2682613be5565b602082019050919050565b60006020820190508181036000830152613c4a81613c0e565b9050919050565b7f45524337323155524953746f726167653a2055524920736574206f66206e6f6e60008201527f6578697374656e7420746f6b656e000000000000000000000000000000000000602082015250565b6000613cad602e83612bf6565b9150613cb882613c51565b604082019050919050565b60006020820190508181036000830152613cdc81613ca0565b9050919050565b60008190508160005260206000209050919050565b60006020601f8301049050919050565b600082821b905092915050565b600060088302613d457fffffffffffffffffffffffffffffffffffffffffffffffffffffffffffffffff82613d08565b613d4f8683613d08565b95508019841693508086168417925050509392505050565b6000819050919050565b6000613d8c613d87613d8284612c9d565b613d67565b612c9d565b9050919050565b6000819050919050565b613da683613d71565b613dba613db282613d93565b848454613d15565b825550505050565b600090565b613dcf613dc2565b613dda818484613d9d565b505050565b5b81811015613dfe57613df3600082613dc7565b600181019050613de0565b5050565b601f821115613e4357613e1481613ce3565b613e1d84613cf8565b81016020851015613e2c578190505b613e40613e3885613cf8565b830182613ddf565b50505b505050565b600082821c905092915050565b6000613e6660001984600802613e48565b1980831691505092915050565b6000613e7f8383613e55565b9150826002028217905092915050565b613e9882612beb565b67ffffffffffffffff811115613eb157613eb0612ff4565b5b613ebb82546133ba565b613ec6828285613e02565b600060209050601f831160018114613ef95760008415613ee7578287015190505b613ef18582613e73565b865550613f59565b601f198416613f0786613ce3565b60005b82811015613f2f57848901518255600182019150602085019450602081019050613f0a565b86831015613f4c5784890151613f48601f891682613e55565b8355505b6001600288020188555050505b505050505050565b7f5072696365206d757374206265206174206c6561737420310000000000000000600082015250565b6000613f97601883612bf6565b9150613fa282613f61565b602082019050919050565b60006020820190508181036000830152613fc681613f8a565b9050919050565b7f5072696365206d75737420626520657175616c20746f206c697374696e67707260008201527f6963650000000000000000000000000000000000000000000000000000000000602082015250565b6000614029602383612bf6565b915061403482613fcd565b604082019050919050565b600060208201905081810360008301526140588161401c565b9050919050565b60006080820190506140746000830187612d32565b6140816020830186612d32565b61408e6040830185612f40565b61409b6060830184612bc1565b95945050505050565b7f436f756e7465723a2064656372656d656e74206f766572666c6f770000000000600082015250565b60006140da601b83612bf6565b91506140e5826140a4565b602082019050919050565b60006020820190508181036000830152614109816140cd565b9050919050565b7f4552433732313a20617070726f766520746f2063616c6c657200000000000000600082015250565b6000614146601983612bf6565b915061415182614110565b602082019050919050565b6000602082019050818103600083015261417581614139565b9050919050565b7f4552433732313a207472616e7366657220746f206e6f6e20455243373231526560008201527f63656976657220696d706c656d656e7465720000000000000000000000000000602082015250565b60006141d8603283612bf6565b91506141e38261417c565b604082019050919050565b60006020820190508181036000830152614207816141cb565b9050919050565b600081519050919050565b600082825260208201905092915050565b60006142358261420e565b61423f8185614219565b935061424f818560208601612c07565b61425881612c31565b840191505092915050565b60006080820190506142786000830187612d32565b6142856020830186612d32565b6142926040830185612f40565b81810360608301526142a4818461422a565b905095945050505050565b6000815190506142be81612b5c565b92915050565b6000602082840312156142da576142d9612b26565b5b60006142e8848285016142af565b91505092915050565b7f4e487b7100000000000000000000000000000000000000000000000000000000600052601260045260246000fdfea26469706673582212207d0a357172501f9bdaa0791bce2504bb2079a6591c65b5ce81a42d72abf3860864736f6c63430008130033",
  "linkReferences": {},
  "deployedLinkReferences": {}
}